:100000000A128A11DE2F00308A000408840A82074F
:10001000003449346E3469347434693461346C3476
:1000200061347A3469346E34673400345434723451
:1000300061346E3473346D346934733473346934B9
:100040006F346E340034453472346F34613472343A
:100050006534213400344434493447344934543409
:1000600041344C340034543469346D3465343A349A
:10007000203400344534723472346F347234213495
:10008000003444346134743465343A3400342034F8
:10009000483455344D343D340034543445344D34B3
:1000A00050343D34003445345234523400345734E3
:1000B0006534643400345434753465340034463463
:1000C0007234693400344D346F346E340034533438
:1000D00075346E3400345334613474340034543421
:0A00E0006834753400342F34003406
:100366000834F00070080F39303E08006400800140
:10037600840A0406031900340406BA290A128A11EB
:100386000A220A128A1183160313111408000A128C
:100396008A110A220A128A118316031311150800FC
:1003A6000A128A110A220A128A1183160313911459
:1003B6000800F0000A128A110A220A128A1170082D
:1003C600831203139300080001300A128A116A226D
:1003D6000A128A113530F600F60BEF2908000830AC
:1003E6008312031394049416831603139101940144
:1003F6008F3093000800F1007108F00004300310FC
:10040600F00CFF3E031D022A7008303E08008316DA
:10041600031314190F2A102A0A2A11081F39031D5B
:10042600152A162A0A2A0800533400344D3400349B
:1004360054340034573400347434003446340034B1
:10044600733400347E088A007F0882000A128A11FB
:1004560025220A128A118000840A04087D060319DF
:100466000034FF0A0319FE0A292AF1000A128A112A
:10047600C1210A128A117C080A128A11DC210A1289
:100486008A1171087D040A128A11DC210A128A1166
:100496000A128A11CA210A128A110800F3007B087F
:1004A600F2007208F304730804380A128A1138221B
:1004B6000A128A117308FB390A128A1138220A12A3
:1004C6008A114230F200F20B662A00000800F5009D
:1004D600FB017508F0390A128A1151220A128A1193
:1004E6007508F40003300310F40DFF3E031D762A51
:1004F6000310740DF0390A128A1151220A128A1158
:100506000800F500FB01FB0A7508F0390A128A118A
:1005160051220A128A117508F40003300310F40DF3
:10052600FF3E031D912A0310740DF0390A128A1139
:1005360051220A128A1108007F308316031388009D
:100546008312031388105E30F1008030F000F00B48
:10055600AA2AF10BAA2A0000831203138814353045
:10056600F000F00BB42A80308316031388000800CD
:10057600F7007703031DC02AC12AC92A76087F3EE1
:100586000A128A116A220A128A11D62A02307706BC
:10059600031DCE2ACF2AD62A7608BF3E0A128A1112
:1005A6006A220A128A11080083120313CD01CE01B2
:1005B6003530F000F00BDD2A831203138818E42A85
:1005C600E52AF92A6A30F000F00BE72A00008312C8
:1005D6000313881CEF2AF02AF42A0130CD000030DC
:1005E600CE004230F000F00BF62A00000800F000C2
:1005F6000A128A110A220A128A1183160313911506
:100606000A128A110A220A128A1183120313130884
:10061600F1000A128A110A220A128A1170080319B5
:10062600152B182B83160313911683160313111615
:1006360071080800F800F601F701342B76087807F0
:1006460084000A128A1103200A128A110A128A11D8
:1006560084220A128A110130F6070318F70A0030BD
:10066600F7077608780784000A128A1103200A120F
:100676008A11003A031D402B412B212B0800F20161
:10068600F30183120313881C492B4A2B442B273072
:10069600F000F00B4C2B4F2B831203138818542BAE
:1006A600552B662B0130F0007308073C013E5D2B8D
:1006B6000310F00DFF3E031D5B2B7008FF3AF1009F
:1006C6007108F205792B0130F0007308073C013EF2
:1006D6006E2B0310F00DFF3E031D6C2B7008F1000E
:1006E6007108F2048818782B792B752B0130F000ED
:1006F6007008F30708307302031C822B832B442BEC
:1007060072080800F4000A128A11C1210A128A111D
:10071600D0300A128A11DC210A128A1174080A12D0
:100726008A11DC210A128A110A128A11D3210A12AD
:100736008A11D1300A128A11DC210A128A11D02BB1
:1007460000300A128A11FA220A128A11F200F30103
:10075600720883120313CB007308CC00E32B01301D
:100766000A128A11FA220A128A11F200F301720899
:1007760083120313C9007308CA00E32B02300A125E
:100786008A11FA220A128A11F200F3017208831200
:100796000313C7007308C800E32B7408F200F301C3
:1007A6007308003A0319D82BE32B7208003A031991
:1007B600A32B013A0319B22B033A0319C12BE32BDE
:1007C6000A128A11CA210A128A110800F4000A12B2
:1007D6008A11C1210A128A11D0300A128A11DC212B
:1007E6000A128A1174080A128A11DC210A128A1165
:1007F6000A128A11D3210A128A11D1300A128A11D9
:10080600DC210A128A11432C03300A128A11FA22B9
:100816000A128A11F200F301720883120313C5004B
:100826007308C600592C04300A128A11FA220A12D9
:100836008A11F200F301720883120313C3007308CE
:10084600C400592C05300A128A11FA220A128A119A
:10085600F200F301720883120313C1007308C20089
:10086600592C06300A128A11FA220A128A11F2004B
:10087600F301720883120313BF007308C000592CDA
:100886007408F200F3017308003A03194B2C592C33
:100896007208033A0319072C073A0319162C013A72
:1008A6000319252C033A0319342C592C0A128A11E0
:1008B600CA210A128A110800F9007908FC009C3046
:1008C600F700D730F600F60B662CF70B662C0330D4
:1008D6000A128A116A220A128A111A30F700F830AF
:1008E600F600F60B742CF70B742C000003300A127A
:1008F6008A116A220A128A111A30F700F830F600B5
:10090600F60B832CF70B832C000003300A128A1196
:100916006A220A128A111A30F700F830F600F60B2E
:10092600922CF70B922C000002300A128A116A22CE
:100936000A128A111A30F700F830F600F60BA12CCD
:10094600F70BA12C000028300A128A116A220A121B
:100956008A110230F8000430F700BA30F600F60BC0
:10096600B22CF70BB22CF80BB22C00000C300A128A
:100976008A116A220A128A110230F8000430F7003E
:10098600BA30F600F60BC52CF70BC52CF80BC52CA8
:10099600000001300A128A116A220A128A110230F4
:1009A600F8000430F700BA30F600F60BD82CF70B37
:1009B600D82CF80BD82C000006300A128A116A22AD
:1009C6000A128A110230F8000430F700BA30F60035
:1009D600F60BEB2CF70BEB2CF80BEB2C00000800BE
:1009E60083120313BE01263084004F30A000040892
:1009F600A1000E30A2002008840083130008A30083
:100A0600A00A2108840023088000A10AA20BFE2C5C
:100A16007730A0002008831603138F048715071666
:100A26000A128A11F2210A128A114E300A128A110A
:100A36005F240A128A118316031388010608831697
:100A46000317890183120313081083160313810108
:100A560015080230F60001300A128A11BB220A126A
:100A66008A1101300A128A111D230A128A111530C1
:100A760083120313A2004B30A100BD30A000A00BCF
:100A8600422DA10B422DA20B422D492D0A128A118D
:100A9600E7210A128A11F601F60A01300A128A11B2
:100AA600BB220A128A118312031386185B2D5C2D52
:100AB600722D861C5F2D602D5C2D0A128A11E7218E
:100AC6000A128A110230831203133E06031D6C2D8F
:100AD6006D2D6E2DBE010130A0002008BE073E0818
:100AE600031D762D772DD92E00300A128A11852303
:100AF6000A128A1101300A128A1185230A128A11F2
:100B060002300A128A1185230A128A1103300A1248
:100B16008A11E9230A128A1104300A128A11E9237A
:100B26000A128A1105300A128A11E9230A128A1159
:100B360006300A128A11E9230A128A11F601F60A08
:100B460001300A128A11BB220A128A112B300A12AC
:100B56008A111D230A128A118312031347080A12E7
:100B66008A11FE210A128A110A128A1184220A1295
:100B76008A118312031347080A128A11B4210A1232
:100B86008A110A128A1184220A128A113D300A1227
:100B96008A111D230A128A118312031349080A12A5
:100BA6008A11FE210A128A110A128A1184220A1255
:100BB6008A118312031349080A128A11B4210A12F0
:100BC6008A110A128A1184220A128A113D300A12E7
:100BD6008A111D230A128A11831203134B080A1263
:100BE6008A11FE210A128A110A128A1184220A1215
:100BF6008A11831203134B080A128A11B4210A12AE
:100C06008A110A128A1184220A128A11F601F60A38
:100C160002300A128A11BB220A128A1139300A12CC
:100C26008A111D230A128A118312031343080A121A
:100C36008A11FE210A128A110A128A1184220A12C4
:100C46008A118312031343080A128A11B4210A1265
:100C56008A110A128A1184220A128A116B300A1228
:100C66008A111D230A128A118312031341080A12DC
:100C76008A11FE210A128A110A128A1184220A1284
:100C86008A118312031341080A128A11B4210A1227
:100C96008A110A128A1184220A128A116B300A12E8
:100CA6008A111D230A128A11831203133F080A129E
:100CB6008A11FE210A128A110A128A1184220A1244
:100CC6008A11831203133F080A128A11B4210A12E9
:100CD6008A110A128A1184220A128A11AA2E5F30F8
:100CE6000A128A111D230A128A11562D5B300A1226
:100CF6008A111D230A128A11562D53300A128A119F
:100D06001D230A128A11562D4F300A128A111D23ED
:100D16000A128A11562D67300A128A111D230A12E9
:100D26008A11562D57300A128A111D230A128A116A
:100D3600562D63300A128A111D230A128A11562D66
:100D46004B300A128A111D230A128A11562DFF30C2
:100D560083120313C5070318C60AFF30C6074508E2
:100D6600A0002007263E840083130008A100840A01
:100D76000008A2002208003A0319C22EA32E210859
:100D8600463A0319952E0B3A0319792E1E3A031982
:100D9600722E073A0319802E033A0319872E243A36
:100DA60003199C2E073A03198E2EA32E3E03031D0C
:100DB600DD2EDE2E562D0A128A119F220A128A1164
:100DC6000A128A11D7220A128A11831203134D03BB
:100DD6004E04031DEF2EF02EBE2F0A128A11422357
:100DE6000A128A1183120313A000A1012008BA0077
:100DF6002108BB000A128A1142230A128A118312A1
:100E06000313A000A1012008B4002108B5000A12AE
:100E16008A1142230A128A1183120313A000A10128
:100E26002008BC002108BD000A128A1142230A12BA
:100E36008A1183120313A000A1012008B60021081D
:100E4600B7000A128A1142230A128A118312031367
:100E5600A000A1012008B8002108B90034083A070B
:100E6600A00035080318350A3B07A1003C082007F7
:100E7600A2003D0803183D0A2107A30036082207F1
:100E8600A40037080318370A2307A50039082506E2
:100E9600031D4F2F38082406031D522F532FAF2F43
:100EA6000A128A11E7210A128A110430F60001306B
:100EB6000A128A11BB220A128A1123300A128A11D7
:100EC6001D230A128A11F601F60A02300A128A1145
:100ED600BB220A128A1145300A128A111D230A12F0
:100EE6008A11831203133C080A128A11FE210A1280
:100EF6008A110A128A1184220A128A118312031392
:100F06003C080A128A11B4210A128A110A128A119D
:100F160084220A128A113F300A128A111D230A12EC
:100F26008A11831203133A080A128A11FE210A1241
:100F36008A110A128A1184220A128A118312031351
:100F46003A080A128A11B4210A128A110A128A115F
:100F560084220A128A11562D0530F60001300A1233
:100F66008A11BB220A128A111B300A128A111D230A
:100F76000A128A11562DF601F60A01300A128A1152
:100F8600BB220A128A110E300A128A111D230A1276
:100F96008A11F601F60A02300A128A11BB220A12D7
:100FA6008A1132300A128A111D230A128A11562D0D
:100FB6000A128A11002883135D30FD000230FE00FC
:100FC6001730FF004F3084000A128A1129220A12B4
:100FD6008A110A128A11B3210A128A11FD003F30C2
:100FE60084004F300A128A11B9210A128A11FA01B5
:0A0FF600FB0183010A128A11F32C9B
:08400000FF3FFF3FFF3FFF3FC0
:04400E00E423FF3F69
:00000001FF
