:060000000A128A11D72F3D
:10000C00F800F401F5017008F200F3017208F60033
:10001C007308F700781C132814281A287608F4079C
:10002C000318F50A7708F50701300310F60DF70DE4
:10003C00FF3E031D1B280310F80C7808031D27280E
:10004C00282810287508F1007408F00008008312A5
:10005C0003132F088039B9002F08B0003007C000F7
:10006C00AE1F39283A283B284014400803193F2872
:10007C0040285028400A031D442845284D280030AC
:10008C00AF000030AE000030AD000030AC00AE1759
:10009C00AF0158280030AF000030AE000030AD008A
:1000AC000030AC002B088039FF007F08B9062B0804
:1000BC00B0003007C100AA1F6428652866284114C7
:1000CC00410803196A286B287B28410A031D6F28F5
:1000DC00702878280030AB000030AA000030A9004E
:1000EC000030A800AA17AB0183280030AB00003009
:1000FC00AA000030A9000030A8002B082A0429040B
:10010C002804031D8A288B28A4280030AF00003057
:10011C00AE000030AD000030AC008030AE047F305B
:10012C00AF043908FF007F08AF042F08AB002E087E
:10013C00AA002D08A9002C08A800FB294008031DC3
:10014C00A828A928B2280030AB000030AA00003043
:10015C00A9000030A800FB294008B000B10131080B
:10016C00B30041083002B200031CB30332087F3ED7
:10017C00BA0033080318013E003EBB002F08B8003C
:10018C002E08B7002D08B6002C08B5000030AF00C3
:10019C000030AE000030AD000030AC000030BF00CD
:1001AC000030BE000030BD000030BC00C101282969
:1001BC0041080319E228E32803290130B000031099
:1001CC00B50DB60DB70DB80DB00BE5280130B0006C
:1001DC000310AC0DAD0DAE0DAF0DB00BEE28BF1F67
:1001EC00F828F928FA282C140130B0000310BC0DA3
:1001FC00BD0DBE0DBF0DB00BFC282B083802031D26
:10020C0011292A083702031D112929083602031D5A
:10021C00112928083502031C1429152924293F17F4
:10022C002808B5022908031C290FB6022A08031C4A
:10023C002A0FB7022B08031C2B0FB8020130FF004A
:10024C007F08C1071A304102031C2D292E29DE28F4
:10025C00380837043604350403193529362955294D
:10026C003C1455290130B0000310AC0DAD0DAE0D92
:10027C00AF0DB00B3A29BF1F4429452946292C1430
:10028C000130B0000310BC0DBD0DBE0DBF0DB00B89
:10029C004829FF30BA070318BB0AFF30BB07AE1F53
:1002AC00582959293829C101BF1F5D295E297A298E
:1002BC00FF303C05B000FF303D05B100FF303E057E
:1002CC00B2007F303F05B3003308320431043004F0
:1002DC000319712972297529C101C10A7A292C1CAB
:1002EC00782979297A297229410803197E297F29CD
:1002FC00B0290130AC07003003180130AD070030D5
:10030C0003180130AE07003003180130AF072F1C63
:10031C0090299129B0292C08B0002D08B1002E0885
:10032C00B2002F08B3000130B400330DB30CB20C83
:10033C00B10CB00CB40B9B293308AF003208AE00E3
:10034C003108AD003008AC000130BA070318BB0A05
:10035C000030BB073B08803AFF0080307F02031D52
:10036C00B929FF303A02031CBC29BD29CB29FF3027
:10037C0083120313BA000030BB000030AF00003012
:10038C00AE000030AD000030AC00831203133B080C
:10039C00803AFF0080307F02031DD62901303A02DB
:1003AC000318D929DA29E72983120313BA01BB01EF
:1003BC000030AF000030AE000030AD000030AC00BB
:1003CC00B901831203133A08C000401CEE29EF292F
:1003DC00F129AE17F5297F30FF007F08AE054008E4
:1003EC00B0000310300CAF009728080008308316BB
:1003FC000313D300CC01A43084009030A000040877
:10040C00A1000E30A2002008840083170008A3006E
:10041C00A00A21088400831323088000A10AA20BE0
:10042C00092A6C08D0006B08CF006A08CE00690856
:10043C00CD000130BE000030BF007730FF007F08D8
:10044C008F04871507160A168A1197210A128A112A
:10045C004E300A168A1147260A128A118316031384
:10046C00880106088316031789010814881483125F
:10047C000313081183160313810115080230F600CB
:10048C0001300A168A113F220A128A1111300A16FB
:10049C008A1101230A128A11153083160313A20044
:1004AC004B30A100BD30A000A00B5A2AA10B5A2A38
:1004BC00A20B5A2A612A0A168A11A3210A128A113E
:1004CC00F601F60A01300A168A113F220A128A1125
:1004DC00013083160313D1000030D20001300A160C
:1004EC008A110B240A128A1102300A168A110B2463
:1004FC000A128A118316031360080A168A11AF2197
:10050C000A128A1183160313C70060080A168A118F
:10051C003D210A128A1183160313C60062080A16BB
:10052C008A11AF210A128A1183160313C5006208BF
:10053C000A168A113D210A128A1183160313C4006C
:10054C0083120313861AAB2AAC2AC32A861EAF2A3F
:10055C00B02AAC2A0A168A11A3210A128A11043075
:10056C00831603134C06031DBC2ABD2ABF2ACC01DB
:10057C00C32A0130FF007F08CC07831603134C08F5
:10058C00031DC92ACA2A302C00300A168A110B24E2
:10059C000A128A1103300A168A114C250A128A1182
:1005AC0004300A168A114C250A128A1105300A16D3
:1005BC008A114C250A128A1106300A168A114C250A
:1005CC000A128A118316031364080A168A11AF21C2
:1005DC000A128A1183160313B70064080A168A11CB
:1005EC003D210A128A1183160313B600F601F60A8E
:1005FC0001300A168A113F220A128A115B300A1640
:10060C008A1101230A128A118316031347080A164A
:10061C008A1178220A128A118316031346080A16C5
:10062C008A1178220A128A113A300A168A11782213
:10063C000A128A118316031345080A168A117822A6
:10064C000A128A118316031344080A168A11782297
:10065C000A128A113A300A168A1178220A128A1161
:10066C008316031337080A168A1178220A128A1184
:10067C008316031336080A168A1178220A128A1175
:10068C00831603135C080A168A11AF210A128A1109
:10069C0083160313B8005C080A168A113D210A124E
:1006AC008A1183160313B9005A080A168A11AF214E
:1006BC000A128A1183160313BA005A080A168A11F1
:1006CC003D210A128A1183160313BB0058080A161F
:1006DC008A11AF210A128A1183160313BC00580821
:1006EC000A168A113D210A128A1183160313BD00C2
:1006FC00F601F60A02300A168A113F220A128A11F2
:10070C0062300A168A1101230A128A118316031306
:10071C0038080A168A1178220A128A1183160313D2
:10072C0039080A168A1178220A128A112F300A16F1
:10073C008A1178220A128A11831603133A080A16B0
:10074C008A1178220A128A11831603133B080A169F
:10075C008A1178220A128A112F300A168A117822ED
:10076C000A128A11831603133C080A168A1178227E
:10077C000A128A11831603133D080A168A1178226D
:10078C000A128A11012C87300A168A1101230A12C7
:10079C008A116E2A83300A168A1101230A128A11D1
:1007AC006E2A7B300A168A1101230A128A116E2ACC
:1007BC0077300A168A1101230A128A116E2A8F3099
:1007CC000A168A1101230A128A116E2A7F300A1620
:1007DC008A1101230A128A116E2A8B300A168A1189
:1007EC0001230A128A116E2A73300A168A11012308
:1007FC000A128A116E2AFF3083160313DE070318C0
:10080C00DF0AFF30DF075E08A0002007A43E84004B
:10081C0083130008A100840A0008A2002208003AF1
:10082C000319192CFA2B2108463A0319EC2B0B3A15
:10083C000319D02B1E3A0319C92B073A0319D72BCE
:10084C00033A0319DE2B243A0319F32B073A031945
:10085C00E52BFA2B4C03031D342C352C4B2EF601B7
:10086C00F60A01300A168A113F220A128A111E302A
:10087C000A168A1101230A128A11F601F60A0230AD
:10088C000A168A113F220A128A113B300A168A1163
:10089C0001230A128A11831603134D080A168A11B2
:1008AC0078220A128A11831603134E080A168A112B
:1008BC0078220A128A113A300A168A1178220A1200
:1008CC008A11831603134F080A168A1178220A120A
:1008DC008A118316031350080A168A1178220A12F9
:1008EC008A110830F60002300A168A113F220A12C9
:1008FC008A11831203138618842C852CCA2C831618
:10090C0003136808031D8B2C8C2CAE2C8312861CB5
:10091C00902C912C8C2C83160313E801E80A0130DF
:10092C00BE000030BF00F601F60A01300A168A112B
:10093C003F220A128A111E300A168A1101230A124A
:10094C008A1156300A168A1101230A128A11CA2CEE
:10095C008312861CB22CB32CAE2C83160313E80125
:10096C00F601F60A01300A168A113F220A128A1180
:10097C001E300A168A1101230A128A1146300A16F1
:10098C008A1101230A128A11831203130618CF2C21
:10099C00D02CF42C831603136808031DD62CD72CEB
:1009AC00F42C0130D302083053020318DE2CDF2C58
:1009BC00EC2C0B30D300EC2C83120313061CE72C0D
:1009CC00E82CEC2C83160313D101D20183160313EC
:1009DC00510352040319F32CF42CE22C8312061944
:1009EC00F82CF92C252D8316031351035204031DE7
:1009FC00002D012D252D6808031D052D062D252DF7
:100A0C000130FF007F08D3070C305302031C0F2D5D
:100A1C00102D1D2D0830D3001D2D83120313061D20
:100A2C00182D192D1D2D83160313D101D2018316F8
:100A3C000313510352040319242D252D132D831256
:100A4C008619292D2A2D812D831603135103520447
:100A5C00031D312D322D812D6808031D362D372DA8
:100A6C00812D0130FF005308F83ECD3E84007F08F5
:100A7C00831380075308F83ECD3E84003A300002C1
:100A8C00031C492D4A2D502D5308F83ECD3E8400B1
:100A9C003030800033304D02031C552D562D582D0F
:100AAC003030CD0036304F02031C5D2D5E2D602D95
:100ABC003030CF0032304D06031D652D662D792D5B
:100ACC0035304E02031C6B2D6C2D792D3030CE0041
:100ADC00792D83120313861D742D752D792D831694
:100AEC000313D101D20183160313510352040319CA
:100AFC00802D812D6F2D8312061A852D862DDB2DD1
:100B0C008316031351035204031D8D2D8E2DDB2DE3
:100B1C006808031D922D932DDB2D5308F83ECD3E16
:100B2C0084000130831380025308F83ECD3E8400CC
:100B3C00303000020318A32DA42DAA2D5308F83E23
:100B4C00CD3E84003930800030304F020318AF2D79
:100B5C00B02DB22D3530CF0030304D020318B72DEB
:100B6C00B82DBA2D3230CD0032304D06031DBF2DBD
:100B7C00C02DD32D30304E020318C52DC62DD32DCC
:100B8C003430CE00D32D83120313061ECE2DCF2D61
:100B9C00D32D83160313D101D201831603135103F2
:100BAC0052040319DA2DDB2DC92D831603136803A8
:100BBC00031DE12DE22D6E2A4D084706031DE72D7E
:100BCC00E82D6E2A4E084606031DED2DEE2D6E2ADD
:100BDC004F084506031DF32DF42D6E2A50084406CC
:100BEC00031DF92DFA2D6E2A3E033F04031DFF2D24
:100BFC00002E6E2A0811C80104304802031C072E6F
:100C0C00082E092E482EC901C8304902031C0F2E8C
:100C1C00102E112E322E8312031308150330831657
:100C2C000313A1009730A000A00B1A2EA10B1A2EB3
:100C3C00831203130811033083160313A10097309A
:100C4C00A000A00B272EA10B272E0130FF007F0840
:100C5C0083160313C9070A2E053083160313A2004B
:100C6C000F30A100F030A000A00B3A2EA10B3A2EB1
:100C7C00A20B3A2E00000130FF007F0883160313ED
:100C8C00C807022EBE01BF016E2A02304C06031D9E
:100C9C00502E512E2A2F0630F60001300A168A11DA
:100CAC003F220A128A114B300A168A1101230A12AA
:100CBC008A110A168A1108220A128A110A168A1136
:100CCC00D6210A128A118316031366036704031DC7
:100CDC00702E712E1B2F0A168A1126230A128A11C6
:100CEC0083160313A000A1012008C0002108C10035
:100CFC000A168A1126230A128A1183160313A000DE
:100D0C00A1012008B2002108B3000A168A1126237B
:100D1C000A128A1183160313A000A1012008C20035
:100D2C002108C3000A168A1126230A128A11831677
:100D3C000313A000A1012008B4002108B500F6019E
:100D4C00F60A02300A168A113F220A128A116830FA
:100D5C000A168A1101230A128A1183160313340806
:100D6C003504031DBA2EBB2ED02E0310420DCA0023
:100D7C00430DCB004B0883120313EA0083160313B5
:100D8C004A0883120313E9000A168A11C2250A12B3
:100D9C008A11E02E4308A1004208A0000310A00D08
:100DAC00A10D2008013ECA0021080318013E003E97
:100DBC00CB00C02E0B30F60002300A168A113F22EF
:100DCC000A128A116E300A168A1101230A128A112C
:100DDC008316031332083304031DF52EF62E0B2F46
:100DEC000310400DCA00410DCB004B0883120313B6
:100DFC00EA00831603134A0883120313E9000A1648
:100E0C008A11C2250A128A116E2A4108A1004008D3
:100E1C00A0000310A00DA10D2008013ECA0021085E
:100E2C000318013E003ECB00FB2EF601F60A013002
:100E3C000A168A113F220A128A1101300A168A11E7
:100E4C0001230A128A116E2A03304C06031D2F2F20
:100E5C00302F852F0530F60001300A168A113F22FB
:100E6C000A128A1129300A168A1101230A128A11D0
:100E7C00F601F60A02300A168A113F220A128A116A
:100E8C0068300A168A1101230A128A110A168A116D
:100E9C0075210A128A110A128A1517200A128A1150
:100EAC00831203135D08EA005C08E9000A168A1134
:100EBC00C2250A128A110B30F60002300A168A116A
:100ECC003F220A128A116E300A168A1101230A1265
:100EDC008A110A168A116A210A128A110A128A15B3
:100EEC0078210A128A11831203135D08EA005C0848
:100EFC00E9000A168A11C2250A128A116E2A0430D8
:100F0C004C06031D8A2F8B2F6E2A0530F6000130FC
:100F1C000A168A113F220A128A1132300A168A11D5
:100F2C0001230A128A110A168A118B210A128A11BC
:100F3C000A168A1169230A128A117908803AFF006D
:100F4C0080307F02031DAC2F97307802031CAF2F2B
:100F5C00B02FC22FF601F60A02300A168A113F2270
:100F6C000A128A1143300A168A1101230A128A11B5
:100F7C008312031388106E2AF601F60A02300A1641
:100F8C008A113F220A128A1153300A168A11012340
:100F9C000A128A118312031388146E2A0A128A11F8
:100FAC00002883179E30FD001130FE00C830FF0072
:100FBC00903084000A128A1508200A128A118313B1
:100FCC00EE30FD001130FE004230FF00E9308400AD
:100FDC000A128A1508200A128A11D4308400E930CA
:100FEC000A168A1147210A128A11EF0183010A128B
:040FFC008A11FC2931
:101008007E088A007F0882000A128A1504200A12C4
:101018008A158000840A04087D0603190034FF0A33
:101028000319FE0A0828831203139F149F181D280A
:101038001E281A281E08DE00DF010310DE0DDF0D52
:101048000310DE0DDF0D5E0883160313D60083122E
:1010580003135F0883160313D7001E0883120313B4
:10106800DE0006300310DE0CFF3E031D36285E0846
:10107800DF00E0015F0883160313D4008312031313
:10108800600883160313D5005408D6070318D70A37
:101098005508D7070530F2000030F3005708F10073
:1010A8005608F0000A168A11DC220A128A157008FE
:1010B800F6007108F7000030F71BFF30F800F90060
:1010C80001300A128A15BE200A128A15790883127D
:1010D8000313E4007808E3007708E2007608E100EB
:1010E8004230C500C830C4000030C3000030C20020
:1010F8004430AB008030AA000030A9000030A800BE
:101108006408AF006308AE006208AD006108AC0077
:101118000A128A112D200A128A15831203132B082A
:10112800C9002A08C8002908C7002808C6000A12EA
:101138008A15BB240A128A15831203134508E40092
:101148004408E3004308E2004208E1006408F300B1
:101158006308F2006208F1006108F0000A168A11BB
:10116800D6240A128A15710883120313DD00700849
:10117800DC00080083120313A00020080319C52807
:10118800C628DA28F91FC928CA28DA287609A20049
:101198007709A3007809A4007909A500A20A031910
:1011A800A30A0319A40A0319A50AE2287908A500C5
:1011B8007808A4007708A3007608A20079087804C4
:1011C80077047604031DE928EA28F3280030F9009B
:1011D8000030F8000030F7000030F600772996302C
:1011E800A10003290130FF007F08A1070130031087
:1011F800A50CA40CA30CA20CFF3E031DFB28FE307B
:101208002505031D08290929F62825290130FF008D
:101218007F08A1070130A207003003180130A30797
:10122800003003180130A407003003180130A50767
:1012380001300310A50CA40CA30CA20CFF3E031D47
:101248001D29FF302505031D2A292B290A2937299D
:101258000130A1020130FA000310A20DA30DA40D64
:10126800A50DFA0B3029A41B3A293B294129023044
:1012780021020318402941292C29211844294529EC
:101288004D29FF30A205FF30A3057F30A405FF30AC
:10129800A5050310A10C2108FA00FB01FC01FD01C2
:1012A80018300310FA0DFB0DFC0DFD0DFF3E031D5C
:1012B80055297A08A2047B08A3047C08A4047D08A5
:1012C800A5042008031969296A296F29F91F6D29BE
:1012D8006E296F29A5172508F9002408F8002308A6
:1012E800F7002208F6000800831203139F149F18C2
:1012F8007E297F297B291E08DE00DF010310DE0D11
:10130800DF0D0310DE0DDF0D5E0883160313D60014
:10131800831203135F0883160313D7001E08831272
:101328000313DE0006300310DE0CFF3E031D972971
:101338005E08DF00E0015F0883160313D400831200
:101348000313600883160313D50054085607D60004
:1013580055080318550A5707D7000530F200003022
:10136800F3005708F1005608F0000A168A11DC222B
:101378000A128A157008F6007108F7000030F71B8A
:10138800FF30F800F90001300A128A15BE200A124F
:101398008A15790883120313E8007808E7007708AC
:1013A800E6007608E5004430AB008030AA00003043
:1013B800A9000030A8006808AF006708AE006608FA
:1013C800AD006508AC000A128A112D200A128A1590
:1013D800831203132B08E8002A08E7002908E6000F
:1013E8002808E5004230C500C830C4000030C300FA
:1013F8000030C2004030AB007F30AA004B30A9005B
:10140800C730A800BF30F3007330F2003330F1006A
:101418003330F0006808F7006708F6006608F50042
:101428006508F4000A128A1557220A128A157308E9
:1014380083120313AF007208AE007108AD00700884
:10144800AC000A128A112D200A128A15831203137E
:101458002B08C9002A08C8002908C7002808C600A0
:101468000A128A15BB240A128A1583120313450827
:10147800E4004408E3004308E2004208E10064088D
:10148800B3006308B2006208B1006108B0000A1630
:101498008A11CD260A128A15831203133108DD003A
:1014A8003008DC00080073088039F80073088312DC
:1014B8000313A0002007FA00F21F632A642A652A92
:1014C8007A147A080319692A6A2A7A2A7A0A031D79
:1014D8006E2A6F2A772A0030F3000030F2000030BD
:1014E800F1000030F000F217F301822A0030F30017
:1014F8000030F2000030F1000030F0007708803949
:10150800F9007908780603198A2A8B2A8C2A781711
:101518007708A0002007F900F61F932A942A952A35
:10152800791479080319992A9A2AAA2A790A031D8B
:101538009E2A9F2AA72A0030F7000030F6000030C4
:10154800F5000030F400F617F701B22A0030F70072
:101558000030F6000030F5000030F4007A08790217
:101568000318B72AB82ADE2A781FBB2ABC2AC02A41
:101578008030FF007F08F8067A08FB007908FA0037
:101588007B08F9007008FB007408F0007B08F40081
:101598007108FB007508F1007B08F5007208FB0074
:1015A8007608F2007B08F6007308FB007708F30062
:1015B8007B08F700FB017908A000A1012108A3001E
:1015C8007A082002A200031CA3032308803AFF0024
:1015D80080307F02031DF22A1A302202031CF52AEA
:1015E800F62A2F2B7308720471047004031DFD2A58
:1015F800FF2A0130002B0030FB000030F3000030E0
:10160800F2000030F1000030F0007908FA00352BC4
:101618007B1C0F2B102B192B7B0883120313A000A4
:101628000310200C0138FB001B2B0310FB0C701C53
:101638001E2B1F2B202BFB17013083120313A00036
:10164800730DF30CF20CF10CF00CA00B242B0130F1
:10165800FF007F08FA0779087A02031C342B352B20
:101668000C2B781B382B392B862B7A08031D3D2B26
:101678003E2B472B0030F3000030F2000030F10021
:101688000030F000BA2C7408F0077508031103182D
:10169800013E0319502BF107760803110318013E88
:1016A8000319572BF207770803110318013E031992
:1016B8005E2BF307731C612B622B3E2C7B1C652B66
:1016C800662B6F2B7B0883120313A0000310200CDA
:1016D8000138FB00712B0310FB0C701C742B752B4D
:1016E800762BFB17013083120313A000730DF30C44
:1016F800F20CF10CF00CA00B7A2B0130FF007F08E4
:10170800FA073E2C7308803AFF007708803A7F0278
:10171800031D982B76087202031D982B7508710219
:10172800031D982B7408700203189B2B9C2BF62B17
:10173800FF3083120313A000FF30A100FF30A20086
:10174800FF30A3007408A4007508A5007608A60059
:101758007708A7007008A4027108031C710FB52B45
:10176800B62BA5027208031C720FBB2BBC2BA6025A
:101778007308031C730FC12BC22BA7022408A007F0
:1017880025080318250FC92BCA2BA10726080318FB
:10179800260FCF2BD02BA20727080318270AA30749
:1017A8002308F3002208F2002108F1002008F000C5
:1017B8008030FF007F08F806FB09FB0A7B08031D41
:1017C800E62BE72B042C0130F0070030031801301A
:1017D800F107003003180130F20700300318013018
:1017E800F307042C7408F0027508031C750FF10246
:1017F8007608031C760FF2027708031C770FF302B2
:101808007308720471047004031D0B2C0C2C3A2C01
:101818007B08031D102C112C3A2C0030F3000030EB
:10182800F2000030F1000030F000BA2C01308312D1
:101838000313A0000310F00DF10DF20DF30DA00B32
:101848001E2CFB1F282C292C2A2C70147B1C2D2CB9
:101858002E2C312C0314FB0D332C0310FB0D7A08AE
:101868000319372C382C3A2C0130FA02F21F3D2C80
:101878003E2C1A2CF901FB1F422C432C512C7B08BF
:101888007F390319482C492C4C2CF901F90A512CA1
:10189800701C4F2C502C512C492C79080319552CAD
:1018A800562C8C2C0130F007003003180130F1075A
:1018B800003003180130F207003003180130F30735
:1018C800731C672C682C8C2C700883120313A000DF
:1018D8007108A1007208A2007308A3000130A400D7
:1018E800230DA30CA20CA10CA00CA40B742C230890
:1018F800F3002208F2002108F1002008F0007A0A1B
:101908000319872C882C8C2C0130FF007F08FA07DC
:101918007A0A0319902C912C962C7A08031D952C81
:10192800962CA42C0030F3000030F2000030F100B7
:101938000030F0007A08031DA22CA32CA42CF80177
:101948007A1CA72CA82CAA2CF217AE2C7F30FF00EB
:101958007F08F2057A0883120313A0000310200CF5
:10196800F300F81FB82CB92CBA2CF317080083120F
:10197800031345088039CF004508CA004A07D50037
:10198800C41FC72CC82CC92C551455080319CD2CB5
:10199800CE2CDD2C550A031DD22CD32CDB2C003089
:1019A800C5000030C4000030C3000030C200C417B6
:1019B800E52C0030C5000030C4000030C300003002
:1019C800C20049088039FF007F08CF064908CA00CD
:1019D8004A07D400C81FF12CF22CF32C54145408D5
:1019E8000319F72CF82C072D540A031DFC2CFD2C89
:1019F800052D0030C9000030C8000030C700003095
:101A0800C600C8170F2D0030C9000030C8000030CC
:101A1800C7000030C60054080319132D142D192DC2
:101A28005508031D182D192D222D0030C500003032
:101A3800C4000030C3000030C200FF2F4208F0008D
:101A480048080A128A1106200A128A157108831298
:101A58000313DB007008DA005A08CA00CB01CC0176
:101A6800CD014D08D3004C08D2004B08D1004A08DC
:101A7800D0005B08CA00CB01CC01CD014D08D900CC
:101A88004C08D8004B08D7004A08D6004308F00095
:101A980047080A128A1106200A128A157108831249
:101AA8000313DB007008DA005A08CA00CB01CC0126
:101AB800CD014A08D0074B0803110318013E03194A
:101AC800662DD1074C0803110318013E03196D2D2B
:101AD800D2074D0803110318013E0319742DD307CB
:101AE8005B08CA00CB01CC01CD014A08D6074B08D8
:101AF80003110318013E0319822DD7074C0803115F
:101B08000318013E0319892DD8074D08031103183E
:101B1800013E0319902DD9074408F00046080A121F
:101B28008A1106200A128A15710883120313DB0032
:101B38007008DA005A08CA00CB01CC01CD014A0866
:101B4800D0074B0803110318013E0319AC2DD10728
:101B58004C0803110318013E0319B32DD2074D0891
:101B680003110318013E0319BA2DD3075B08CA00F5
:101B7800CB01CC01CD014A08D6074B080311031845
:101B8800013E0319C82DD7074C0803110318013E5D
:101B98000319CF2DD8074D0803110318013E031967
:101BA800D62DD9070830CA000310D00DD10DD20D9B
:101BB800D30DCA0BD82D4308F00046080A128A1123
:101BC80006200A128A15710883120313DB007008B5
:101BD800DA005A08CA005B08CB00CC01CD014A08DC
:101BE800D0074B0803110318013E0319FC2DD10738
:101BF8004C0803110318013E0319032ED2074D08A0
:101C080003110318013E03190A2ED3074208F000F6
:101C180047080A128A1106200A128A1571088312C7
:101C28000313DB007008DA005A08CA005B08CB000F
:101C3800CC01CD014A08D0074B0803110318013E17
:101C48000319272ED1074C0803110318013E031965
:101C58002E2ED2074D0803110318013E0319352E05
:101C6800D3070830CA000310D00DD10DD20DD30D03
:101C7800CA0B372E4208F00046080A128A110620BD
:101C88000A128A15710883120313DB007008DA0040
:101C98005A08CA005B08CB00CC01CD014A08D0071E
:101CA8004B0803110318013E03195B2ED1074C089A
:101CB80003110318013E0319622ED2074D080311C0
:101CC8000318013E0319692ED3074308F00048089A
:101CD8000A128A1106200A128A1571088312031340
:101CE800DB007008DA005A08CA005B08CB00CC0198
:101CF800CD014A08D6074B0803110318013E031902
:101D0800862ED7074C0803110318013E03198D2EA0
:101D1800D8074D0803110318013E0319942ED9075B
:101D28004408F00047080A128A1106200A128A1588
:101D3800710883120313DB007008DA005A08CA001E
:101D48005B08CB00CC01CD014A08D6074B0803112C
:101D58000318013E0319B12ED7074C0803110318C5
:101D6800013E0319B82ED8074D0803110318013E88
:101D78000319BF2ED9074408F00048080A128A112F
:101D880006200A128A15710883120313DB007008F3
:101D9800DA005A08CA005B08CB00CC01CD01083034
:101DA8000310CA0DCB0DCC0DCD0DFF3E031DD42E57
:101DB8004A08D6074B0803110318013E0319E52EFC
:101DC800D7074C0803110318013E0319EC2ED80756
:101DD8004D0803110318013E0319F32ED9075008C3
:101DE800CA005108CB005208CC005308CD00183067
:101DF8000310CD0CCC0CCB0CCA0CFF3E031DFC2EE3
:101E08004A08D6074B0803110318013E03190D2F82
:101E1800D7074C0803110318013E0319142FD807DC
:101E28004D0803110318013E03191B2FD907083069
:101E3800CA000310D00DD10DD20DD30DCA0B1D2F22
:101E480055085407CA00CB01CB0D4A08823EDA0078
:101E58004B080318013EFF3EDB004F2F0130CA003C
:101E68000310D60DD70DD80DD90DCA0B342FD31F9B
:101E78003E2F3F2F402F56140130CA000310D00DBB
:101E8800D10DD20DD30DCA0B422FFF30DA0703183C
:101E9800DB0AFF30DB07D81F522F532F322FD40114
:101EA800D31F572F582F742FFF305005CA00FF300B
:101EB8005105CB00FF305205CC007F305305CD00D3
:101EC8004D084C044B044A0403196B2F6C2F6F2FD9
:101ED800D401D40A742F561C722F732F742F6C2FB1
:101EE80054080319782F792FAA2F0130D60700300C
:101EF80003180130D707003003180130D807003025
:101F080003180130D907591C8A2F8B2FAA2F56087E
:101F1800CA005708CB005808CC005908CD0001303A
:101F2800CE004D0DCD0CCC0CCB0CCA0CCE0B952F86
:101F38004D08D9004C08D8004B08D7004A08D600ED
:101F48000130DA070318DB0A0030DB075B08803A48
:101F5800FF0080307F02031DB32FFF305A02031C9D
:101F6800B62FB72FC22F7F3083120313D9008030CA
:101F7800D8000030D7000030D600F32F83120313A7
:101F88005B08803AFF0080307F02031DCD2F0130AF
:101F98005A020318D02FD12FDD2F003083120313DC
:101FA800D9000030D8000030D7000030D600CF016B
:101FB800F32F831203135A08D500FF30D605FF30DC
:101FC800D7057F30D8050030D905551CEC2FED2FEB
:101FD800EE2FD8175508CA0003104A0CD9004F082D
:101FE800FF007F08D9045908C5005808C4005708DD
:101FF800C3005608C200080010308A000408840A8A
:102008008207003443344834453443344B34203455
:1020180042344934543420344534523452344F34E1
:102028005234003449344E344934543449344134F8
:102038004C3449345A3449344E34473400344134EA
:102048004C34413452344D3420344D344F344434BC
:102058004534003441344E3441344C344F344734E1
:102068004934433400344C344434523420344D34ED
:102078004F3444344534003441346C346134723460
:102088006D343A34203400344C34453444342034EC
:102098004F344634463400344434493447344934A0
:1020A800543441344C3400344C34453444342034B2
:1020B80020344F344E340034543469346D3465342C
:1020C8003A342034003444346134743465343A3456
:1020D8000034543465346D3470343D34003448343D
:1020E80075346D343D340034453452345234003440
:1020F80057346534643400345434753465340034EA
:1021080046347234693400344D346F346E340034DC
:10211800533475346E3400345334613474340034B9
:082128005434683475340034AE
:10227A00F00070080F39303E080030343034303402
:10228A003034083464008001840A040603190034D7
:10229A00040648290A168A11BB210A168A118316CE
:1022AA000313111408000A168A11BB210A168A118F
:1022BA0083160313111508000A168A11BB210A1680
:1022CA008A118316031391140800831603138514C5
:1022DA000530831203139F00831603139F0108001E
:1022EA008316031305140130831203139F00831608
:1022FA0003139F010800F0000A168A11BB210A166F
:10230A008A117008831203139300080083160313BB
:10231A00051508110930831203139F00831603134E
:10232A009F0108000830831203139404941683163D
:10233A00031391019401C7309300080001300A1673
:10234A008A1123220A168A111A30F600F60BAB29D3
:10235A0000000800F1007108F00004300310F00CCE
:10236A00FF3E031DB3297008303E0800831603138D
:10237A001419C029C129BB2911081F39031DC629EF
:10238A00C729BB290800533400344D34003454346F
:10239A00003457340034743400344634003473340F
:1023AA00003483160313E601E70183120818DE29B5
:1023BA00DF29DA29081CE229E329DF2901308316FB
:1023CA000313E6000030E7002130F000F00BEB29A0
:1023DA000800F300831203136F08FF007F08F30459
:1023EA00730804380A168A115B220A168A117308BE
:1023FA00FB390A168A115B220A168A112130F20069
:10240A00F20B052A08008316031308088312031324
:10241A0008102F30F100BF30F000F00B122AF10B38
:10242A00122A172A8312031308141030F000F00B33
:10243A001C2A00008316031308080800F5008312FB
:10244A000313EF017508F0390A168A11EE210A16EC
:10245A008A117508F40003300310F40DFF3E031DC2
:10246A00312A0310740DF0390A168A11EE210A1660
:10247A008A110800F7007703031D442A452A4D2ACA
:10248A0076087F3E0A168A1123220A168A115A2AC8
:10249A0002307706031D522A532A5A2A7608BF3E6B
:1024AA000A168A1123220A168A110800F1000A164E
:1024BA008A114F210A168A11831603136E080A1607
:1024CA008A1180210A168A117108831603136D0472
:1024DA000A168A1180210A168A110A168A115821A7
:1024EA000A168A110800F50083120313EF01EF0A96
:1024FA007508F0390A168A11EE210A168A1175082A
:10250A00F40003300310F40DFF3E031D872A031065
:10251A00740DF0390A168A11EE210A168A1108007A
:10252A00F0000A168A11BB210A168A1183160313B0
:10253A0091150A168A11BB210A168A1183120313EE
:10254A001308F1000A168A11BB210A168A117008AB
:10255A000319B02AB32A8316031391168316031399
:10256A00111671080800803083120313AB062F0876
:10257A00F3002E08F2002D08F1002C08F0002B08B9
:10258A00F7002A08F6002908F5002808F4000A12BC
:10259A008A1557220A168A11730883120313AB008D
:1025AA007208AA007108A9007008A8000800F401BE
:1025BA00F501701CE12AE22AE82A7208F4070318D6
:1025CA00F50A7308F50701300310F20DF30DFF3E0B
:1025DA00031DE92A01300310F10CF00CFF3E031D24
:1025EA00F02A70087104031DFB2AFC2ADE2A7508EA
:1025FA00F1007408F0000800F800F601F701182B42
:10260A007608780784000A168A1100200A168A11A9
:10261A000A168A1178220A168A110130F607031857
:10262A00F70A0030F7077608780784000A168A1135
:10263A0000200A168A11003A031D242B252B052B8C
:10264A000800F101F20183120313081C2D2B2E2B13
:10265A00282B1330F000F00B302B332B831203138B
:10266A000818382B392B4A2B0130F0007208073C26
:10267A00013E412B0310F00DFF3E031D3F2B700856
:10268A00FF3AFF007F08F1055D2B0130F000720868
:10269A00073C013E522B0310F00DFF3E031D502B49
:1026AA007008FF007F08F10408185C2B5D2B592B7A
:1026BA000130FF007F08F20708307202031C662B04
:1026CA00672B282B71080800831203139F149F1885
:1026DA006F2B702B6C2B1E08FA00FB010310FA0DEE
:1026EA00FB0D0310FA0DFB0D7A0883160313D600AF
:1026FA007B08D7001E08FA0006300310FA0CFF3ECA
:10270A00031D822B7A08FB00FC017B08D4007C089D
:10271A00D50054085607D60055080318550A570716
:10272A00D7000330F0000030F1005708F3005608D4
:10273A00F2000A168A116F240A168A117008FF3EDF
:10274A0083160313D60071080318013EFF3ED70013
:10275A005708F9005608F8000800FD01FB1FB62BC0
:10276A00B72BBE2BFA09FB09FA0A0319FB0AFD016A
:10277A00FD0AF91FC12BC22BC72BF809F909F80A60
:10278A000319F90A780879040319CC2BCD2BFC2BF1
:10279A00FC01FC0ADB2B01300310F80DF90DFF3E9A
:1027AA00031DD12B0130FF007F08FC07F91FDE2B28
:1027BA00DF2BD02B79087B02031DE52B78087A02E0
:1027CA00031CE82BE92BEF2B7808FA027908031C83
:1027DA00FB03FB0201300310F90CF80CFF3E031D4A
:1027EA00F02B0130FC02031DFB2BFC2BDF2B7D0899
:1027FA000319002C012C062CFA09FB09FA0A031901
:10280A00FB0A7B08F9007A08F8000800F4000A16A7
:10281A008A114F210A168A11D0300A168A1180218C
:10282A000A168A1174080A168A1180210A168A1150
:10283A000A168A1161210A168A11D1300A168A11DA
:10284A0080210A168A11562C00300A168A119522FE
:10285A000A168A11F200F301720883160313E400C0
:10286A007308E500692C01300A168A1195220A16A6
:10287A008A11F200F301720883160313E200730847
:10288A00E300692C02300A168A1195220A168A1167
:10289A00F200F301720883160313E0007308E100E3
:1028AA00692C7408F200F3017308003A03195E2CCC
:1028BA00692C7208003A0319292C013A0319382C99
:1028CA00033A0319472C692C0A168A1158210A1649
:1028DA008A110800F501F11F732C742C7B2CF00966
:1028EA00F109F00A0319F10AF501F50AF31F7E2C22
:1028FA007F2C882CF209F309F20A0319F30A013032
:10290A00FF007F08F506F601F70170087104031944
:10291A008F2C902CC72CF401F40A9E2C0130031042
:10292A00F00DF10DFF3E031D942C0130FF007F08CE
:10293A00F407F11FA12CA22C932C01300310F60DE1
:10294A00F70DFF3E031DA32C71087302031DAF2C64
:10295A0070087202031CB22CB32CBA2C7008F20253
:10296A007108031CF303F302761401300310F10C0F
:10297A00F00CFF3E031DBB2C0130F402031DC62CD4
:10298A00C72CA22C75080319CB2CCC2CD12CF609F8
:10299A00F709F60A0319F70A7708F1007608F00032
:1029AA0008000310720D730DF9007908031DDE2C5F
:1029BA00DF2CE82C0030F3000030F2000030F10088
:1029CA000030F0004B2D7008F4007108F500720811
:1029DA00F6007308F7001F300310F70CF60CF50C1D
:1029EA00F40CFF3E031DF12C7408F800F217FF30B7
:1029FA00F005FF30F105FF30F2050030F30596309F
:102A0A00F902F91F092D0A2D242D7908803A973EDB
:102A1A000318102D112D122DDF2C01300310F30C89
:102A2A00F20CF10CF00CFF3E031D132D0130FF00D8
:102A3A007F08F907031D222D232D122D3B2D20304F
:102A4A007902031C292D2A2D362DDF2C0130F400A2
:102A5A000310F00DF10DF20DF30DF40B2D2D0130D5
:102A6A00F9027908031D3A2D3B2D2B2D78080319FD
:102A7A003F2D402D4B2DF009F109F209F309F00A17
:102A8A000319F10A0319F20A0319F30A0800F400F8
:102A9A000A168A114F210A168A11D0300A168A118B
:102AAA0080210A168A1174080A168A1180210A16C8
:102ABA008A110A168A1161210A168A11D1300A1658
:102ACA008A1180210A168A11A62D03300A168A1144
:102ADA0095220A168A11F200F3017208831603136B
:102AEA00DE007308DF00BC2D04300A168A11952215
:102AFA000A168A11F200F301720883160313DC0026
:102B0A007308DD00BC2D05300A168A1195220A16B3
:102B1A008A11F200F301720883160313DA007308AC
:102B2A00DB00BC2D06300A168A1195220A168A1174
:102B3A00F200F301720883160313D8007308D90050
:102B4A00BC2D7408F200F3017308003A0319AE2D84
:102B5A00BC2D7208033A03196A2D073A0319792D15
:102B6A00013A0319882D033A0319972DBC2D0A1629
:102B7A008A1158210A168A11080001308312031398
:102B8A00ED000030EE00DE2D0A30F0000030F100DA
:102B9A00831203136E08F3006D08F2000A168A11F5
:102BAA00DC220A168A11710883120313EE007008D8
:102BBA00ED006E08F1006D08F0006A08F30069087C
:102BCA00F2000A168A116F240A168A117108803ACD
:102BDA00FF0080307F02031DF42D0A3070020318B3
:102BEA00F72DF82DC92D372E0A30F8000030F900DC
:102BFA00831203136E08F1006D08F0006A08F300EF
:102C0A006908F2000A168A116F240A168A117108D5
:102C1A00FB007008FA000A168A11B2230A168A11F2
:102C2A00790883120313EC007808EB006B08303E36
:102C3A000A168A1178220A168A110A30F000003020
:102C4A00F100831203136E08F3006D08F2000A16EE
:102C5A008A116F240A168A11710883120313EE006F
:102C6A007008ED00831203136E08803AFF0080306B
:102C7A007F02031D422E01306D020318452E462E97
:102C8A00F92D0800F800780883160313EE004E3079
:102C9A00F700EB30F600F60B502EF70B502E0330F0
:102CAA000A168A1123220A168A110D30F700FB3000
:102CBA00F600F60B5E2EF70B5E2E632E03300A1615
:102CCA008A1123220A168A110D30F700FB30F6000A
:102CDA00F60B6D2EF70B6D2E722E03300A168A1123
:102CEA0023220A168A110D30F700FB30F600F60B84
:102CFA007C2EF70B7C2E812E02300A168A11232293
:102D0A000A168A110D30F700FB30F600F60B8B2EEF
:102D1A00F70B8B2E902E28300A168A1123220A16B8
:102D2A008A118230F700DD30F600F60B9A2EF70B87
:102D3A009A2E9F2E0C300A168A1123220A168A11FD
:102D4A008230F700DD30F600F60BA92EF70BA92E1C
:102D5A00AE2E01300A168A1123220A168A118230EF
:102D6A00F700DD30F600F60BB82EF70BB82EBD2EA5
:102D7A0006300A168A1123220A168A118230F700AF
:102D8A00DD30F600F60BC72EF70BC72ECC2E080047
:102D9A00831203133308F3003208F2003108F100FA
:102DAA003008F0000A168A11D6240A168A11710808
:102DBA0083120313B9007008B8003808F6003908FE
:102DCA00F7000030F71BFF30F800F90001300A1253
:102DDA008A15BE200A168A11790883120313AB00DA
:102DEA007808AA007708A9007608A8003308AF0077
:102DFA003208AE003108AD003008AC000A168A115C
:102E0A00B8220A168A11831203132B08B7002A085C
:102E1A00B6002908B5002808B4003708F3003608B8
:102E2A00F2003508F1003408F0000030F7000030F5
:102E3A00F6000030F5000030F4000A168A115E2709
:102E4A000A168A11031C2A2F2B2F572F0030F30042
:102E5A000030F2000030F1000030F000831203135A
:102E6A003308F7003208F6003108F5003008F4009C
:102E7A000A168A115E270A168A11031C452F462F45
:102E8A004F2FFF3083120313B8070318B90AFF3014
:102E9A00B907572F013083120313B8070318B90A69
:102EAA000030B907831203133908B1003808B0009B
:102EBA00080000307005F80000307105F900803014
:102ECA007205FA007F307305FB007B087A047904E7
:102EDA007804031D712F722F7A2F0030F30000300F
:102EEA00F2000030F1000030F00000307405F80004
:102EFA0000307505F90080307605FA007F307705D5
:102F0A00FB007B087A0479047804031D8D2F8E2F29
:102F1A00962F0030F7000030F6000030F500003040
:102F2A00F400F31F992F9A2FBE2F0030F8000030BB
:102F3A00F9000030FA008030FB007008F8027108CE
:102F4A00031C710FA92FAA2FF9027208031C720F12
:102F5A00AF2FB02FFA027308031C730FB52FB62FC9
:102F6A00FB027B08F3007A08F2007908F10078087E
:102F7A00F000F71FC12FC22FE62F0030F8000030F3
:102F8A00F9000030FA008030FB007408F802750876
:102F9A00031C750FD12FD22FF9027608031C760F66
:102FAA00D72FD82FFA027708031C770FDD2FDE2FD1
:102FBA00FB027B08F7007A08F6007908F500780822
:102FCA00F4008030F3068030F70677087302031D99
:102FDA00F82F76087202031DF82F75087102031D77
:102FEA00F82F740870020318FB2FFC2FFE2F031012
:062FFA00FF2F0314080084
:08400000FF3FFF3FFF3FFF3FC0
:04400E00E423FF3F69
:00000001FF
